:100000000C9446000C945D000C945D000C945D0013
:100010000C945D000C945D000C945D000C945D00EC
:100020000C945D000C945D000C945D000C945D00DC
:100030000C945D000C945D000C945D000C945D00CC
:100040000C945D000C945D000C945D000C945D00BC
:100050000C945D000C945D000C945D000C945D00AC
:100060000C945D000C945D000C945D000C945D009C
:100070000C945D000C945D000C945D000C945D008C
:100080000C945D000C945D000C945D0011241FBE67
:10009000CFEFD0E4DEBFCDBF11E0A0E0B1E0E0E9FA
:1000A000F1E000E00BBF02C007900D92AE30B10747
:1000B000D9F70E9488000C94C6000C940000CF93DE
:1000C000DF9300D01F92CDB7DEB789837B836A832D
:1000D00089818A3031F48A819B81BC018DE00E9444
:1000E0005F0080EC90E0FC018081882F90E08072BE
:1000F00099270097B1F386EC90E02981FC012083D9
:1001000080E090E00F900F900F90DF91CF910895D5
:10011000CF93DF931F92CDB7DEB78AE290E0FC0168
:1001200010828BE290E02FEFFC01208384E290E0CC
:100130002EEFFC01208385E290E021E0FC0120838A
:10014000198289E290E0FC01208183E290E0FC01C9
:100150008081820F89838981863428F085E290E04E
:1001600022E0FC0120838981863040F08981863439
:1001700028F485E290E023E0FC0120838981863029
:1001800020F485E290E0FC011082DBCFF894FFCFF1
:0E01900000000002000000005F000000000000
:00000001FF
