:100000000C9446000C945D000C945D000C945D0013
:100010000C945D000C945D000C945D000C945D00EC
:100020000C945D000C945D000C945D000C945D00DC
:100030000C945D000C945D000C945D000C945D00CC
:100040000C945D000C945D000C945D000C945D00BC
:100050000C945D000C945D000C945D000C945D00AC
:100060000C945D000C945D000C945D000C945D009C
:100070000C945D000C945D000C945D000C945D008C
:100080000C945D000C945D000C945D0011241FBE67
:10009000CFEFD0E4DEBFCDBF11E0A0E0B1E0EEEDE8
:1000A000F1E000E00BBF02C007900D92AE30B10747
:1000B000D9F70E9488000C94ED000C940000CF93B7
:1000C000DF9300D01F92CDB7DEB789837B836A832D
:1000D00089818A3031F48A819B81BC018DE00E9444
:1000E0005F0080EC90E0FC018081882F90E08072BE
:1000F00099270097B1F386EC90E02981FC012083D9
:1001000080E090E00F900F900F90DF91CF910895D5
:10011000CF93DF9300D01F92CDB7DEB781E290E09E
:10012000FC01108282E290E02FEFFC01208387E245
:1001300090E02FEFFC01208388E290E0FC01108228
:100140001A8219821B8280E290E0FC0180818F700C
:100150008A8380E290E0FC018081807E8B8380E452
:1001600089838A81823019F08A81833011F480E694
:1001700089838A81833019F08A81843011F480E781
:1001800089838A81853019F08A81863011F488E369
:1001900089838A81873028F08A818A3010F48CE341
:1001A00089838A818A3028F08A818D3010F48EE329
:1001B00089838A818D3028F08A81803110F48FE321
:1001C00089838B81803619F489818068898388E2EC
:0E01D00090E02981FC012083B6CFF894FFCF88
:0E01DE0000000002000000005F0000000000B2
:00000001FF
