:100000000C9446000C9465000C9465000C946500FB
:100010000C9465000C9465000C9465000C946500CC
:100020000C9465000C9465000C9465000C946500BC
:100030000C9465000C9465000C9465000C946500AC
:100040000C9465000C9465000C9465000C9465009C
:100050000C9465000C9465000C9465000C9465008C
:100060000C9465000C9465000C9465000C9465007C
:100070000C9465000C9465000C9465000C9465006C
:100080000C9465000C9465000C94650011241FBE4F
:10009000CFEFD0E4DEBFCDBF11E0A0E0B1E0E0E7FC
:1000A000F2E000E00BBF02C007900D92AE30B10746
:1000B000D9F721E0AEE0B1E001C01D92A431B20752
:1000C000E1F70E942A010C9436010C940000CF93B2
:1000D000C82F8A3019F48DE00E9467008091C0001B
:1000E00085FFFCCFC093C60080E090E0CF910895DB
:1000F00080B18093100190B181E089278170809355
:10010000110120911201309113012230310509F4BF
:1001100048C038F42115310579F02130310599F0C6
:1001200074C02430310509F458C008F44AC02530A1
:10013000310509F45EC069C081E090E0909313013D
:100140008093120166C0813059F490910E01911193
:1001500007C083E090E0909313018093120159C08F
:10016000813059F490910E01913039F484E090E09F
:1001700090931301809312014CC0813059F4809107
:100180000E01823039F485E090E090931301809362
:1001900012013FC081E090E090931301809312011F
:1001A00038C0811107C081E090E0909313018093E3
:1001B00012012FC082E090E090931301809312010E
:1001C00028C080910E018F5F80930E0182E090E045
:1001D00090931301809312011CC080910E018F5FD8
:1001E00080930E0182E090E09093130180931201BE
:1001F00010C080910E01825080930E0182E090E049
:10020000909313018093120104C010921301109275
:10021000120180911201909113018330910551F0E8
:1002200018F4029799F008958430910539F00597F4
:1002300049F008958CE080930F01089582E1809346
:100240000F01089581E280930F01089580910F01BD
:1002500088B9089511B88FEF82B987B918B810928C
:100260001301109212010E947800FDCFF894FFCF85
:0E027000000000020000000067000000000017
:00000001FF
