:100000000C9446000C9465000C9465000C946500FB
:100010000C9465000C9465000C9465000C946500CC
:100020000C9465000C9465000C9465000C946500BC
:100030000C9465000C9465000C9465000C946500AC
:100040000C9465000C9465000C9465000C9465009C
:100050000C9465000C9465000C9465000C9465008C
:100060000C9465000C9465000C9465000C9465007C
:100070000C9465000C9465000C9465000C9465006C
:100080000C9465000C9465000C94650011241FBE4F
:10009000CFEFD0E4DEBFCDBF11E0A0E0B1E0E6E5F8
:1000A000F2E000E00BBF02C007900D92AE30B10746
:1000B000D9F721E0AEE0B1E001C01D92A331B20753
:1000C000E1F70E941D010C9429010C940000CF93CC
:1000D000C82F8A3019F48DE00E9467008091C0001B
:1000E00085FFFCCFC093C60080E090E0CF910895DB
:1000F00080B180930F0180B180958370809310014F
:10010000209111013091120122303105E1F138F4D2
:100110002115310579F02130310599F062C0243084
:10012000310509F450C008F447C02530310509F401
:1001300051C057C081E090E090931201809311016B
:1001400054C0813039F483E090E0909312018093A1
:1001500011014BC0823039F484E090E09093120199
:100160008093110142C0833039F485E090E0909390
:1001700012018093110139C081E090E09093120147
:100180008093110132C0811107C081E090E090930B
:1001900012018093110129C0833039F485E090E089
:1001A000909312018093110120C082E090E090931F
:1001B00012018093110119C082E090E09093120126
:1001C0008093110112C082E090E09093120180931D
:1001D00011010BC082E090E0909312018093110115
:1001E00004C010921201109211018091110190919E
:1001F00012018330910551F018F40297D1F008955F
:100200008430910559F0059789F0089580910E0189
:10021000893090F48F5F80930E01089580910E01D4
:10022000882351F0815080930E01089510920E01A1
:10023000089580910E0188B9089511B88FEF82B9A1
:1002400087B918B810921201109211010E9478001B
:06025000FDCFF894FFCF82
:0E025600000000020000000067000000000031
:00000001FF
