:100000000C944D000C946C000C946C000C946C00DF
:100010000C946C000C946C000C946C000C946C00B0
:100020000C946C000C946C000C946C000C946C00A0
:100030000C946C000C946C000C946C000C946C0090
:100040000C946C000C946C000C946C000C946C0080
:100050000C946C000C946C000C946C000C946C0070
:100060000C946C000C946C000C946C000C946C0060
:100070000C946C000C946C000C946C000C946C0050
:100080000C946C000C946C000C946C00BF00C600C7
:10009000CD00020128012F01360111241FBECFEF30
:1000A000D0E4DEBFCDBF11E0A0E0B1E0E6E6F3E0D2
:1000B00000E00BBF02C007900D92AE30B107D9F738
:1000C00011E0AEE0B1E001C01D92A331B107E1F74C
:1000D0000E948B010C94B1010C940000CF93DF932C
:1000E00000D01F92CDB7DEB789837B836A83898175
:1000F0008A3031F48A819B81BC018DE00E946E00C0
:1001000080EC90E0FC018081882F90E0807299273C
:100110000097B1F386EC90E02981FC01208380E018
:1001200090E00F900F900F90DF91CF910895CF93B3
:10013000DF93CDB7DEB780E290E0FC018081817073
:1001400080930E0180E290E0FC01808182708093B8
:100150000F018091110190911201CC01A0E0B0E05B
:1001600040E050E026E030E0841B950B281739076B
:1001700008F483C08A5B9F4FFC010C94A80181E0C6
:1001800090E090931201809311017CC082E090E096
:10019000909312018093110175C080910E01882304
:1001A00059F080910F01882339F484E090E0909316
:1001B00012018093110125C080910F01882359F00D
:1001C00080910E01882339F485E090E0909312012C
:1001D0008093110116C080910E01882359F08091FF
:1001E0000F01882339F086E090E09093120180930C
:1001F000110107C082E090E09093120180931101F9
:1002000041C040C080910E01882321F480910F01EC
:10021000882339F083E090E09093120180931101DC
:1002200016C080910E01882359F080910F01882318
:1002300039F086E090E0909312018093110107C09D
:1002400082E090E090931201809311011BC01AC0CC
:1002500083E090E0909312018093110113C083E03A
:1002600090E090931201809311010CC083E090E024
:10027000909312018093110105C010921201109207
:1002800011010000809111019091120183309105BC
:10029000F9F08430910538F48130910571F08230A5
:1002A000910579F035C08530910521F185309105B2
:1002B000B0F08630910549F12BC087E080931001A2
:1002C00027C088E290E020911001FC01208320C02B
:1002D00088E290E020911001FC01208319C08091F8
:1002E0001001893030F4809110018F5F80931001EC
:1002F0000FC00EC080911001882331F08091100151
:1003000081508093100104C003C0109210010000BE
:10031000DF91CF910895CF93DF93CDB7DEB781E220
:1003200090E0FC01108282E290E02FEFFC0120833C
:1003300087E290E02FEFFC01208385E290E0FC0152
:10034000108210921201109211010E949700FDCFAD
:10035000EE0FFF1F0024001C0BBE0790F691E02D4E
:060360000994F894FFCFA0
:0E03660000000002000000006E000000000019
:00000001FF
