:100000000C9446000C9465000C9465000C946500FB
:100010000C9465000C9465000C9465000C946500CC
:100020000C9465000C9465000C9465000C946500BC
:100030000C9465000C9465000C9465000C946500AC
:100040000C9465000C9465000C9465000C9465009C
:100050000C9465000C9465000C9465000C9465008C
:100060000C9465000C9465000C9465000C9465007C
:100070000C9465000C9465000C9465000C9465006C
:100080000C9465000C9465000C94650011241FBE4F
:10009000CFEFD0E4DEBFCDBF11E0A0E0B1E0EEE0F5
:1000A000F3E000E00BBF02C007900D92AE30B10745
:1000B000D9F711E0AEE0B1E001C01D92A231B10765
:1000C000E1F70E9468010C9485010C940000CF9325
:1000D000DF9300D01F92CDB7DEB789837B836A831D
:1000E00089818A3031F48A819B81BC018DE00E9434
:1000F000670080EC90E0FC018081882F90E08072A6
:1001000099270097B1F386EC90E02981FC012083C8
:1001100080E090E00F900F900F90DF91CF910895C5
:10012000CF93DF93CDB7DEB780E290E0FC01808112
:1001300080930E0180911001909111018230910500
:1001400021F18330910530F4009789F081309105D9
:10015000A9F0A0C08430910509F456C084309105FF
:1001600008F440C08530910509F482C093C081E055
:1001700090E0909311018093100191C082E090E093
:1001800090931101809310018AC080910E018130FB
:1001900041F080910E01823021F080910E01843077
:1001A00071F480910E01843019F481E080930F0185
:1001B00083E090E0909311018093100112C0809130
:1001C0000E01803839F481E090E090931101809322
:1001D000100107C082E090E090931101809310011C
:1001E0005EC05DC080910E01882339F484E090E008
:1001F000909311018093100152C083E090E090939E
:100200001101809310014BC080910E01823091F456
:1002100080910F01813039F485E090E090931101D5
:100220008093100124C081E090E0909311018093AD
:10023000100135C080910E01803839F481E090E0E2
:10024000909311018093100112C080910E018823B8
:1002500039F484E090E0909311018093100107C07D
:1002600081E090E0909311018093100118C017C0B5
:1002700080910E01803839F481E090E09093110173
:10028000809310010CC085E090E090931101809361
:10029000100105C010921101109210010000809110
:1002A0001001909111018130910521F08530910567
:1002B00031F00BC085E290E0FC01108206C085E2BF
:1002C00090E021E0FC0120830000DF91CF910895B0
:1002D000CF93DF93CDB7DEB781E290E0FC011082CF
:1002E00082E290E02FEFFC01208384E290E02FEF88
:1002F000FC01208385E290E0FC0110821092110144
:0E030000109210010E949000FDCFF894FFCFE4
:0E030E00000000020000000067000000000078
:00000001FF
