:100000000C9446000C9465000C9465000C946500FB
:100010000C9465000C9465000C9465000C946500CC
:100020000C9465000C9465000C9465000C946500BC
:100030000C9465000C9465000C9465000C946500AC
:100040000C9465000C9465000C9465000C9465009C
:100050000C9465000C9465000C9465000C9465008C
:100060000C9465000C9465000C9465000C9465007C
:100070000C9465000C9465000C9465000C9465006C
:100080000C9465000C9465000C94650011241FBE4F
:10009000CFEFD0E4DEBFCDBF11E0A0E0B1E0ECE1F6
:1000A000F2E000E00BBF02C007900D92A031B10753
:1000B000D9F711E0A0E1B1E001C01D92A431B10770
:1000C000E1F70E94EF000C940C010C940000CF9318
:1000D000DF9300D01F92CDB7DEB789837B836A831D
:1000E00089818A3031F48A819B81BC018DE00E9434
:1000F000670080EC90E0FC018081882F90E08072A6
:1001000099270097B1F386EC90E02981FC012083C8
:1001100080E090E00F900F900F90DF91CF910895C5
:10012000CF93DF93CDB7DEB780E290E0FC01808112
:1001300080931001809112019091130181309105FB
:10014000A1F08130910520F08230910501F126C0A7
:1001500081E090E0909313018093120185E290E09A
:1001600020910E01FC0120831EC08091100181307E
:1001700039F482E090E0909313018093120113C050
:1001800081E090E090931301809312010CC081E014
:1001900090E0909313018093120105C01092130117
:1001A0001092120100008091120190911301813090
:1001B000910521F08230910541F00EC085E290E07A
:1001C00020910E01FC01208307C080910E018095D3
:1001D000837080930E010000DF91CF910895CF933B
:1001E000DF93CDB7DEB781E290E0FC01108282E2BE
:1001F00090E02FEFFC01208384E290E02FEFFC01E0
:10020000208385E290E0FC0110821092130110928D
:0C02100012010E949000FDCFF894FFCF77
:10021C000000000200000000670000000000010068
:00000001FF
