:100000000C9446000C9465000C9465000C946500FB
:100010000C9465000C9465000C9465000C946500CC
:100020000C9465000C9465000C9465000C946500BC
:100030000C9465000C9465000C9465000C946500AC
:100040000C9465000C9465000C9465000C9465009C
:100050000C9465000C9465000C9465000C9465008C
:100060000C9465000C9465000C9465000C9465007C
:100070000C9465000C9465000C9465000C9465006C
:100080000C9465000C9465000C94650011241FBE4F
:10009000CFEFD0E4DEBFCDBF11E0A0E0B1E0E4EDF2
:1000A000F2E000E00BBF02C007900D92AE30B10746
:1000B000D9F711E0AEE0B1E001C01D92A231B10765
:1000C000E1F70E944B010C9468010C940000CF935F
:1000D000DF9300D01F92CDB7DEB789837B836A831D
:1000E00089818A3031F48A819B81BC018DE00E9434
:1000F000670080EC90E0FC018081882F90E08072A6
:1001000099270097B1F386EC90E02981FC012083C8
:1001100080E090E00F900F900F90DF91CF910895C5
:10012000CF93DF93CDB7DEB780E290E0FC01808112
:1001300080930E0180911001909111018230910500
:1001400019F18330910530F4009781F081309105E9
:10015000A1F083C08430910509F449C08430910531
:10016000A0F18530910509F46CC077C081E090E082
:10017000909311018093100175C082E090E09093FC
:100180001101809310016EC080910E01813041F009
:1001900080910E01823021F080910E01843071F443
:1001A00080910E01843019F481E080930F0183E087
:1001B00090E0909311018093100154C082E090E090
:1001C00090931101809310014DC080910E018823FE
:1001D00039F484E090E0909311018093100142C0C3
:1001E00083E090E090931101809310013BC08091D7
:1001F0000E01813041F080910E01823021F080911A
:100200000E018430B1F480910E01823059F4809156
:100210000F01813039F485E090E0909311018093D3
:1002200010010EC081E090E09093110180931001C5
:1002300007C084E090E0909311018093100112C0F8
:1002400011C080910E01803439F481E090E09093E8
:1002500011018093100106C005C010921101109287
:1002600010010000809110019091110181309105E1
:1002700021F08530910531F00BC085E290E0FC0162
:10028000108206C085E290E021E0FC01208300009E
:10029000DF91CF910895CF93DF93CDB7DEB781E2A1
:1002A00090E0FC01108282E290E02FEFFC012083BD
:1002B00084E290E02FEFFC01208385E290E0FC01D6
:1002C000108210921101109210010E949000FDCF37
:0402D000F894FFCFD0
:0E02D4000000000200000000670000000000B3
:00000001FF
