:100000000C9446000C9465000C9465000C946500FB
:100010000C9465000C9465000C9465000C946500CC
:100020000C9465000C9465000C9465000C946500BC
:100030000C9465000C9465000C9465000C946500AC
:100040000C9465000C9465000C9465000C9465009C
:100050000C9465000C9465000C9465000C9465008C
:100060000C9465000C9465000C9465000C9465007C
:100070000C9465000C9465000C9465000C9465006C
:100080000C9465000C9465000C94650011241FBE4F
:10009000CFEFD0E4DEBFCDBF11E0A0E0B1E0E0E6FD
:1000A000F3E000E00BBF02C007900D92AE30B10745
:1000B000D9F711E0AEE0B1E001C01D92AB31B1075C
:1000C000E1F70E9491010C94AE010C940000CF93D3
:1000D000DF9300D01F92CDB7DEB789837B836A831D
:1000E00089818A3031F48A819B81BC018DE00E9434
:1000F000670080EC90E0FC018081882F90E08072A6
:1001000099270097B1F386EC90E02981FC012083C8
:1001100080E090E00F900F900F90DF91CF910895C5
:10012000CF93DF93CDB7DEB780E290E0FC01808112
:1001300080930E01809111019091120182309105FE
:1001400051F18330910530F4009761F081309105D1
:1001500081F0C1C08430910509F4ABC085309105B0
:1001600089F0B9C081E090E0909312018093110171
:10017000B7C01092100182E090E09093120180933A
:100180001101AEC01092100182E090E09093120134
:1001900080931101A5C080910E01813049F08091BA
:1001A0000E01823029F080910E01843009F07AC06E
:1001B00080911001843009F05AC080910F0188238A
:1001C00049F5809113019091140184309105E1F477
:1001D000809115019091160181309105A9F48091CB
:1001E0001701909118018230910571F480911901E5
:1001F00090911A018130910539F485E090E0909357
:1002000012018093110106C081E090E090931201E9
:100210008093110180910F01882349F1809113018E
:100220009091140184309105E1F480911501909131
:10023000160181309105A9F4809117019091180160
:100240008230910571F48091190190911A018130E9
:10025000910539F481E090E09093120180931101AF
:1002600006C085E090E09093120180931101809187
:100270001001882F90E020910E01222F30E0880F8E
:10028000991F8D5E9E4FFC01318320838091100168
:100290008F5F8093100184E090E09093120180932F
:1002A00011011EC082E090E0909312018093110131
:1002B00017C080910E01882339F482E090E090937A
:1002C0001201809311010CC084E090E09093120120
:1002D0008093110105C010921201109211010000CB
:1002E00080911101909112018130910521F08530AA
:1002F000910551F013C010920F0185E290E020911A
:100300000F01FC0120830AC081E080930F0185E288
:1003100090E020910F01FC0120830000DF91CF913C
:100320000895CF93DF93CDB7DEB781E290E0FC0173
:10033000108282E290E02FEFFC01208384E290E0C3
:100340002FEFFC01208385E290E0FC0110821092E7
:100350001201109211010E949000FDCFF894FFCF7E
:0E036000000000020000000067000000000026
:00000001FF
