:100000000C9446000C9465000C9465000C946500FB
:100010000C9465000C9465000C9465000C946500CC
:100020000C9465000C9465000C9465000C946500BC
:100030000C9465000C9465000C9465000C946500AC
:100040000C9465000C9465000C9465000C9465009C
:100050000C9465000C9465000C9465000C9465008C
:100060000C9465000C9465000C9465000C9465007C
:100070000C9465000C9465000C9465000C9465006C
:100080000C9465000C9465000C94650011241FBE4F
:10009000CFEFD0E4DEBFCDBF11E0A0E0B1E0EAE2F7
:1000A000F2E000E00BBF02C007900D92AE30B10746
:1000B000D9F711E0AEE0B1E001C01D92A131B10766
:1000C000E1F70E94F6000C9413010C940000CF930A
:1000D000DF9300D01F92CDB7DEB789837B836A831D
:1000E00089818A3031F48A819B81BC018DE00E9434
:1000F000670080EC90E0FC018081882F90E08072A6
:1001000099270097B1F386EC90E02981FC012083C8
:1001100080E090E00F900F900F90DF91CF910895C5
:10012000CF93DF93CDB7DEB780E290E0FC01808112
:1001300080930E0180910F01909110018130910503
:1001400071F08130910520F082309105D1F02BC003
:1001500081E090E09093100180930F0129C080917D
:100160000E01882F90E081709927009719F082E0A6
:1001700090E002C081E090E09093100180930F0125
:1001800017C080910E01882F90E081709927009709
:1001900019F081E090E002C082E090E090931001BD
:1001A00080930F0105C01092100110920F01000002
:1001B00080910F01909110018130910539F08130CB
:1001C000910580F08230910539F00DC085E290E014
:1001D00021E0FC01208307C085E290E022E0FC01E1
:1001E000208301C00000DF91CF910895CF93DF936A
:1001F000CDB7DEB781E290E0FC01108282E290E0B0
:100200002FEFFC01208384E290E02FEFFC0120839C
:1002100085E290E0FC0110821092100110920F0113
:0A0220000E949000FDCFF894FFCF7C
:0E022A0000000002000000006700000000005D
:00000001FF
