:100000000C9446000C9465000C9465000C946500FB
:100010000C9465000C9465000C9465000C946500CC
:100020000C9465000C9465000C9465000C946500BC
:100030000C9465000C94B4000C9465000C9465005D
:100040000C9465000C9465000C9465000C9465009C
:100050000C9465000C9465000C9465000C9465008C
:100060000C9465000C9465000C9465000C9465007C
:100070000C9465000C9465000C9465000C9465006C
:100080000C9465000C9465000C94650011241FBE4F
:10009000CFEFD0E4DEBFCDBF11E0A0E0B1E0E2EDF4
:1000A000F3E000E00BBF02C007900D92A231B10750
:1000B000D9F721E0A2E1B1E001C01D92A532B2075B
:1000C000E1F70E94A3010C94E7010C940000CF9388
:1000D000C82F8A3019F48DE00E9467008091C0001B
:1000E00085FFFCCFC093C60080E090E0CF910895DB
:1000F00060930001709301018093020190930301CA
:100100006093160170931701809318019093190161
:1001100008958BE0809381008DE790E090938900B3
:100120008093880082E080936F0010928500109287
:1001300084008091000190910101A0910201B09191
:1001400003018093160190931701A0931801B093B7
:1001500019018FB780688FBF0895109281000895AC
:1001600081E080931A0108951F920F920FB60F92AB
:1001700011240BB60F922F933F934F935F936F937E
:100180007F938F939F93AF93BF93EF93FF93809150
:10019000160190911701A0911801B09119010197D2
:1001A000A109B1098093160190931701A09318013A
:1001B000B0931901892B8A2B8B2B91F40E94B000EC
:1001C0008091000190910101A0910201B091030181
:1001D0008093160190931701A0931801B093190111
:1001E000FF91EF91BF91AF919F918F917F916F910F
:1001F0005F914F913F912F910F900BBE0F900FBECB
:100200000F901F90189580911D0190911E01892BD0
:1002100021F010921E0110921D0180911D019091FC
:100220001E01892B39F49091150181E08927817095
:1002300080931501089580912101909122018130D0
:10024000910571F030F082309105E1F0039709F1EA
:1002500027C081E090E0909322018093210124C087
:1002600080911401882339F082E090E0909322017C
:100270008093210119C081E090E090932201809346
:10028000210112C083E090E090932201809321012C
:100290000BC083E090E0909322018093210104C081
:1002A000109222011092210180912101909122014E
:1002B000029731F48091130180958270809313012D
:1002C00008958091230190912401892B21F41092AB
:1002D0002401109223018091230190912401892B04
:1002E00021F480B1887F80931401089580911F01CB
:1002F00090912001892B29F41092200110921F0166
:1003000008951092200110921F01089580911B0101
:1003100090911C01892B21F010921C0110921B015D
:1003200080911B0190911C01892B61F49091150122
:1003300080911301892B90911201892B90911401C6
:10034000892B85B9089511B88FEF82B984B915B892
:1003500064E670E080E090E00E9478000E948900EE
:1003600010921E0110921D01109222011092210183
:1003700010922401109223011092200110921F016B
:1003800010921C0110921B01C12CD12C760188EE19
:10039000C81683E0D806E104F10428F00E940301A6
:1003A000C12CD12C76010E941B010E9461010E9488
:1003B00076010E94860180911A018823E1F3109250
:1003C0001A0184E6C80ED11CE11CF11CE0CFF894A0
:0203D000FFCF5D
:1003D20001000000000000020000000067000000B1
:0203E200000019
:00000001FF
