:100000000C9446000C945D000C945D000C945D0013
:100010000C945D000C945D000C945D000C945D00EC
:100020000C945D000C945D000C945D000C945D00DC
:100030000C945D000C945D000C945D000C945D00CC
:100040000C945D000C945D000C945D000C945D00BC
:100050000C945D000C945D000C945D000C945D00AC
:100060000C945D000C945D000C945D000C945D009C
:100070000C945D000C945D000C945D000C945D008C
:100080000C945D000C945D000C945D0011241FBE67
:10009000CFEFD0E4DEBFCDBF11E0A0E0B1E0E2E2FF
:1000A000F1E000E00BBF02C007900D92AE30B10747
:1000B000D9F70E9470000C948F000C940000CF932D
:1000C000C82F8A3019F48DE00E945F009091C00023
:1000D00095FFFCCFC093C60080E090E0CF910895DB
:1000E00011B88FEF82B914B885B917B885B98AB934
:1000F00018B850E040E020B183B196B1820F890F6B
:1001000030E0291B3109203531050CF042E08C38F4
:1001100008F051E0942F952B892B8BB9ECCFF894F4
:02012000FFCF0F
:0E01220000000002000000005F00000000006E
:00000001FF
