:100000000C9446000C945D000C945D000C945D0013
:100010000C945D000C945D000C945D000C945D00EC
:100020000C945D000C945D000C945D000C945D00DC
:100030000C945D000C945D000C945D000C945D00CC
:100040000C945D000C945D000C945D000C945D00BC
:100050000C945D000C945D000C945D000C945D00AC
:100060000C945D000C945D000C945D000C945D009C
:100070000C945D000C945D000C945D000C945D008C
:100080000C945D000C945D000C945D0011241FBE67
:10009000CFEFD0E4DEBFCDBF11E0A0E0B1E0EAEEEB
:1000A000F1E000E00BBF02C007900D92AE30B10747
:1000B000D9F70E9488000C94F3000C940000CF93B1
:1000C000DF9300D01F92CDB7DEB789837B836A832D
:1000D00089818A3031F48A819B81BC018DE00E9444
:1000E0005F0080EC90E0FC018081882F90E08072BE
:1000F00099270097B1F386EC90E02981FC012083D9
:1001000080E090E00F900F900F90DF91CF910895D5
:10011000CF93DF93CDB7DEB727970FB6F894DEBF46
:100120000FBECDBF81E290E0FC01108282E290E040
:100130002FEFFC01208384E290E0FC01108285E235
:1001400090E02FEFFC01208387E290E0FC01108219
:1001500085E290E02FEFFC0120838AE290E02FEF10
:10016000FC01208388E290E0FC0110821B821C824B
:100170001D821E8219821A821F8280E290E0FC0199
:1001800080818B8383E290E0FC0180818C8386E216
:1001900090E0FC0180818D839B818C81980F8D8103
:1001A000890F8E838B81282F30E08D81882F90E0FE
:1001B000A901481B590BCA018035910514F082E052
:1001C00089838E818C3810F081E08A838E818C7FC8
:1001D0008F838BE290E03F812981322B2A81232B70
:0A01E000FC012083CACFF894FFCF82
:0E01EA0000000002000000005F0000000000A6
:00000001FF
